:020000040800F2
:100000003821002031020008BB2100087B1F0008B6
:10001000B9210008CD0900084D27000800000000A4
:10002000000000000000000000000000990100082E
:10003000EF0A000800000000DD010008612300084D
:100040004B0200084B0200084B0200084B0200085C
:100050004B0200084B0200084B0200084B0200084C
:100060004B0200084B0200084B0200084B0200083C
:100070004B0200084B0200084B0200084B0200082C
:100080004B0200084B0200084B0200084B0200081C
:100090004B0200084B0200084B0200084B0200080C
:1000A0004B0200084B0200084B0200084B020008FC
:1000B0004B0200084B020008D92300084B0200083D
:1000C0004B0200084B0200084B020008BD2100084B
:1000D0004B020008412700084B0200084B020008B1
:1000E0004B0200084B0200084B02000800F002F827
:1000F00000F043F80AA090E8000C82448344AAF17F
:100100000107DA4501D100F038F8AFF2090EBAE87C
:100110000F0013F0010F18BFFB1A43F0010318473B
:10012000244B0000444B0000103A24BF78C878C12B
:10013000FAD8520724BF30C830C144BF04680C60ED
:10014000704700000023002400250026103A28BF35
:1001500078C1FBD8520728BF30C148BF0B60704739
:10016000642900F0F780002070471FB59DE8030068
:1001700000F07AFA1FBD10B510BD00F0A5FB1146C6
:10018000FFF7F3FF02F06AFD00F0C3FB03B4FFF7D3
:10019000F2FF03BC00F0F4FB224B19680868B0E8DA
:1001A000F00F80F30988BFF36F8F4FF0000080F3EA
:1001B00011884EF00D0E70470000000006480068E0
:1001C000006880F3088862B661B6BFF34F8FBFF353
:1001D0006F8F00DF00BF00BF08ED00E0EFF3098084
:1001E000BFF36F8F0F4B1A6820E9F00F106008B54E
:1001F0004FF0500080F31188BFF34F8FBFF36F8F24
:1002000003F09EFD4FF0000080F31188BDE8084028
:1002100019680868B0E8F00F80F30988BFF36F8FA2
:10022000704700BF54000020EFF3058070470000C6
:100230000948804709480047FEE7FEE7FEE7FEE77A
:10024000FEE7FEE7FEE7FEE7FEE7FEE704480549B6
:10025000054A064B70470000D7230008ED00000850
:10026000381B002038210020381D0020381D0020B8
:1002700070B5064600F0DCF9056806F10B0020F0C9
:100280000704B4429CBF002070BD2B466A68BAB117
:100290001068A04210D304F1080188423CBF5068A6
:1002A000586007D35168101941601168091B01603B
:1002B00058601460101D70BD13465268002AE7D1C3
:1002C0002146284600F0BCF90028DED170BD70B58B
:1002D0000446051F00F0ACF90068002C14BF446808
:1002E00070BD002C18BFAC423CBF20466468F8D3F8
:1002F00001680A18AA4218BF456003D12A6805465A
:100300001144016028684119A1421CBF6C6070BD96
:100310006168696021680844286070BD0FB47CB5CD
:100320000C0009AA009001D02044401E084B7B44D9
:1003300069460190089800F02CFA05461CB100208F
:10034000694600F039FA28467CBC5DF814FB0000D1
:10035000910400002DE9F04106460024106875293B
:10036000314616A510D0AFF30080002802DA4042D3
:1003700013A507E031688A0701D512A502E04907F5
:1003800004D511A5012401E0AFF3008000210A2269
:1003900006F1240709E0B0FBF2FCB0FBF2F302FB2C
:1003A0001C00303078541846491C0028F3D12346ED
:1003B0002A463046BDE8F04100F08CB9000000004C
:1003C0002D0000002B000000200000002DE9F05F50
:1003D000894604464FF0000ADFF824B1FB44C0F818
:1003E00020A02046E168884700287DD0252806D037
:1003F000D4E901219047206A401C2062F1E70025E2
:100400005F462046E16888472028064607DB312EF4
:1004100005D2B81910F8200C08B10543F1E7A80778
:1004200001D525F00405C4F81CA00027C4F818A0C5
:100430002A2E09D0304602F0A3F938B304EB87081E
:10044000303EC8F8186019E059F8041B204604EB48
:1004500087029161E1688847012F064618D1E0695B
:10046000002820DA25F020051DE0D8F8180000EB60
:10047000800006EB40003038C8F818002046E168DC
:100480008847064602F07CF90028EED1012F0AD0F9
:100490002E2E08D12046E16888477F1C0646022F91
:1004A00045F02005C4DBA069002803DA404245F08E
:1004B0000105A061E80701D025F01005A6B1A6F15D
:1004C0004100192802D8203645F400654A463146D5
:1004D000204625604D46FFF743FE60B1012807D056
:1004E000ED1D25F0070000E007E000F1080978E7BE
:1004F00005F1040975E730467AE7206ABDE8F09F08
:100500001E48000010B5431C02E010F8011B71B139
:100510008107FAD14FF0013202C88C1A8C4314EAD9
:10052000C211F9D0C01A0A0603D0C01E10BDC01AED
:1005300010BD0A0401D0801E10BD0902FCD0401E6F
:1005400010BD032A40F2308010F0030C00F015803B
:1005500011F8013BBCF1020F624498BF11F801CBC6
:1005600000F8013B38BF11F8013BA2F1040298BF2B
:1005700000F801CB38BF00F8013B11F0030300F095
:100580002881083AC0F0088051F8043B083A51F835
:1005900004CBA0E80810F5E7121D5CBF51F8043B3E
:1005A00040F8043BAFF30080D20724BF11F8013BB1
:1005B00011F801CB48BF11F8012B24BF00F8013B13
:1005C00000F801CB48BF00F8012B704702F0FF0391
:1005D00043EA032242EA024200F02FB94FF0000240
:1005E00000B5134694469646203922BFA0E80C5029
:1005F000A0E80C50B1F12001BFF4F7AF090728BF04
:10060000A0E80C5048BF0CC05DF804EB890028BF7F
:1006100040F8042B08BF704748BF20F8022B11F0A8
:10062000804F18BF00F8012B704770477047704724
:1006300000487047DC1A00207047704770477047C9
:1006400038B504460A4600206946AFF3008000280A
:1006500008BF38BD02460099204600F013F901207A
:1006600038BD012000F028B9F8B5AFF30080054689
:1006700000200C46102000BF0646A819A0420DD944
:10068000324669460020AFF30080070008BF00F043
:1006900013F90098A04218BF0546C419FFF7C8FF18
:1006A00005600746F01D20F007004619284600F0B7
:1006B0000AF8B44208BFF8BDA21B31463868BDE84D
:1006C000F84000F0DFB800210160C0E90110704778
:1006D000102070472DE9F0470D4699469246044692
:1006E00000F124080168880604D5E06921F01001B2
:1006F000216000E00120A84201DD471B00E0002747
:10070000A1697A1902EB0900081AA0612078C006D5
:1007100002D42046AFF30080002608E0D4E901218E
:100720001AF806009047206A401C761C20624E454D
:10073000F4DB2078C0060AD52046AFF3008006E03F
:10074000D4E9012130209047206A401C2062381EE5
:10075000A7F10107F4DC07E0D4E9012118F805004E
:100760009047206A401C2062281EA5F10105F3DC99
:100770002046AFF300802078000602D50220BDE8B5
:10078000F0870120FBE7000001694A1C026108783C
:10079000704700B58FB0CDE90131002105910549C1
:1007A0007944CDE9031011466846FFF70FFE0FB0FC
:1007B00000BD0000E5FFFFFF0A6802F8010B0A60B8
:1007C0007047D1E900239A4202D2531C0B6010708B
:1007D000704710B5203AC0F00B80B1E81850203AAD
:1007E000A0E81850B1E81850A0E81850BFF4F5AFD1
:1007F0005FEA027C24BFB1E81850A0E8185044BF5B
:1008000018C918C0BDE810405FEA827C24BF51F8C7
:10081000043B40F8043B08BF7047D20728BF31F8BB
:10082000023B48BF11F8012B28BF20F8023B48BF0C
:1008300000F8012B70474FF000020429C0F012802D
:1008400010F0030C3FF4CCAECCF1040CBCF1020F61
:1008500018BF00F8012BA8BF20F8022BA1EB0C0158
:10086000FFF7BEBE5FEAC17C24BF00F8012B00F891
:10087000012B48BF00F8012B70470000004870476B
:10088000D41A0020034640688C46002818BF8842CE
:100890003CBF03464068F8D318681844884207D024
:1008A0000CF1030020F00700001D411A521A014606
:1008B000081D0A60FFF70BBD10B500F039F8BDE860
:1008C000104000F02FB870477546FFF7D7FFAE46CF
:1008D00005006946534620F00700854618B020B54C
:1008E000FFF7B4FCBDE820404FF000064FF00007D2
:1008F0004FF000084FF0000B21F00701AC46ACE8C8
:10090000C009ACE8C009ACE8C009ACE8C0098D4634
:10091000704710B50446AFF300802046BDE8104094
:10092000FFF734BC002801D000F02AB8704700005F
:1009300010B5012805D0002103A000F027F8012000
:1009400010BD09A1F8E7000053494752544D454DE9
:100950003A204F7574206F662068656170206D6560
:100960006D6F7279000000003A2048656170206D5B
:10097000656D6F727920636F727275707465640053
:1009800001491820ABBEFEE72600020070B50546FF
:100990000C460A2000E06D1C00F011F835B12878F3
:1009A0000028F8D102E0641C00F009F814B12078A6
:1009B0000028F8D1BDE870400A20AFF3008008B5E8
:1009C00069468DF800000320ABBE08BDFEE70000BD
:1009D000FCB5054600200C46ADF8000041F22106AA
:1009E0008DF804004FF6FF7720E000BF15F8010BEB
:1009F0008DF8040001A9084601F0D6FABDF8000000
:100A00009DF8041080EA0120ADF800005FF00000BE
:100A1000BDF800100A0402D586EA410101E007EAA8
:100A20004101401CADF800100828F1DB641EDDD246
:100A30006946084601F0A2FABDF80000FCBD2DE9A8
:100A4000F04186B0884607461C4615461821684680
:100A50000C9EFFF7C3FD00206946F20701D0FC227F
:100A600000E0C022C0F10703401C7608C0B2CA549F
:100A70000828F2D30020EA0701D0FC2200E0C022BF
:100A8000C0F10F03401C6D08C0B2CA540828F2D34D
:100A90000020E20701D0FC2200E0C022C0F11703D1
:100AA000401C6408C0B2CA540828F2D3B96808EBE5
:100AB000480001EBC00018226946FFF742FD06B06E
:100AC000BDE8F08130B590F840500124AC40C56BD2
:100AD0006C60046863604368102B036803D09960FE
:100AE0000068C26030BD9A600068C16030BD704768
:100AF00072B6FEE710B590F821100022022905D049
:100B00000421816380F82020012010BD01680B685A
:100B100023F00E030B6001680B6823F001030B60E8
:100B200090F84030C46B012101FA03F3636080F850
:100B3000211080F82020104610BD000010B590F85C
:100B400021100024022903D00421816301243DE007
:100B500001680A6822F00E020A6001680A6822F041
:100B600001020A601A4A0168914201D1012121E083
:100B7000174A1432914201D110211BE0144A283245
:100B8000914201D1891515E0114A3C32914201D1BF
:100B900089140FE00E4A5032914202D14FF4803155
:100BA00008E00B4A6432914202D14FF4801101E017
:100BB0004FF08071064A083A5160012180F82110F7
:100BC000002180F82010416B01B18847204610BDFC
:100BD0000800024070B5044690F820000025012866
:100BE0000CD0012084F8200094F821600020012E10
:100BF00006D084F820000225284670BD022070BD72
:100C0000022684F82160A0632068066826F00106A9
:100C100006602046FFF756FFE06A0028206801685A
:100C200002D041F00E0106E021F0040101602068CD
:100C3000016841F00A0101602068016841F001018A
:100C40000160D9E72DE9F84FDFF8B8910024A9F148
:100C5000040B23460F2709F1040AABF1040EC9E087
:100C60000125A5402A40AA427DD1674ED1F804C093
:100C7000ACEB0608B44532D014DCBCF1030F3AD01B
:100C800009DCBCF1000F2AD0BCF1010F1CD0BCF173
:100C9000020F31D11DE0BCF1110F17D0BCF1120FC2
:100CA0002AD119E0B8F5881F19D006DCB8F5803FC5
:100CB00015D0B8F5801F1FD111E0B8F5001F0ED078
:100CC000B8F5041F18D10AE0CB6815E0CB681B1DEE
:100CD00012E0CB6808330FE0CB680C330CE08B6874
:100CE0002BB1012B4FF0080303D0456104E004232E
:100CF00002E0056100E00023FF2A01D8064601E07A
:100D000000F104064FEA840501D9A5F12005D6F8C3
:100D1000008007FA05FC28EA0C0803FA05F548EA02
:100D20000508C6F800804D68ED0062D5374DAE6904
:100D300046F00106AE61AD6924F0030605F0010539
:100D40000095334D06EB050CDCF80850A607360F6E
:100D500007FA06F825EA0805DFF8B880404503D110
:100D60004FF0000817E044E0DFF8AC80404502D1C6
:100D70004FF001080FE0DFF8A480404502D14FF0AA
:100D8000020808E0DFF89880404502D14FF00308E0
:100D900001E04FF0040808FA06F848EA0508CCF824
:100DA00008804D68D9F80060ED024D4601D5164324
:100DB00000E096432E604D68DAF80060AD025546BB
:100DC00001D5164300E096432E604D68DBF80060C5
:100DD000AD035D4601D5164300E096432E604D6895
:100DE000DEF80060ED03754601D5164300E096433A
:100DF0002E60641C0D682A46E5407FF431AFBDE8E3
:100E0000F88F00000804014000001110001002409B
:100E10000000014000080140000C014000100140AA
:100E2000001401400AB1016170470904FBE70000AA
:100E3000014880687047000048000020024881682F
:100E4000027811448160704748000020074810B5BF
:100E5000016841F010010160032000F0A7F80520AF
:100E600000F006F800F050F8002010BD002002400D
:100E700030B505461F4887B0C16941F00401C16122
:100E8000C06906A900F00400009001A800F032F942
:100E90000498B0B100F04EF940001749174AB0FB72
:100EA000F1F11748491E0260416040F2E73200212B
:100EB000C0E903218160816100F032FD040003D0AC
:100EC00015E000F037F9E8E70D4800F057FD0400A1
:100ED0000DD11E2000F03CF8102D07D2002229462B
:100EE0001E2000F043F80748056000E0012407B029
:100EF000204630BD0010024040420F000008004074
:100F0000B40100204C0000200F4808B5816941F071
:100F100001018161816901F001010091C16941F024
:100F20008051C161C069002200F0805000900F2103
:100F3000901E00F01BF80548416821F0E06141F087
:100F40000071416008BD0000001002400000014037
:100F5000002809DB00F01F020121914040098000B8
:100F600000F1E020C0F8001170470000F0B40E4B13
:100F70001B680C46C3F30223C3F10705042D00D9F7
:100F80000425191D072901D2002300E0DB1E0126DC
:100F900006FA05F1491E214099409E40761E1640F2
:100FA0003143F0BC01F0DCBB0CED00E00449086803
:100FB0004FF6FF021040034A1043086070470000DC
:100FC0000CED00E00000FA052DE9F0470F460500A2
:100FD00061D0434E306800F00700B84209D2306853
:100FE00020F0070038433060306800F00700B84256
:100FF00051D128683B4C810712D5400703D5606862
:1010000040F4E06060602878000703D5606840F431
:10101000605060606068A96820F0F000084360607C
:101020002878C00728D06868012810D021680228D5
:1010300010D0890700292EDA616821F003010143ED
:101040006160FFF7F5FE804641F288390DE02168C6
:101050008903EFE78901EDE7FFF7EAFEA0EB08015E
:10106000494502D90320BDE8F0876068696800F04F
:101070000C00B0EB810FEFD1306800F00700B842F0
:101080000BD9306820F0070038433060306800F03A
:101090000700B84201D00120E5E72878400705D5D0
:1010A0006068E96820F4E060084360602878000721
:1010B00006D56068296920F4605040EAC10060608C
:1010C00000F058F86168084AC1F30311515CC84048
:1010D0000649086006480068FFF7CAFE0020C2E71C
:1010E0000020024000100240D44B000844000020C1
:1010F0004C0000200F2202600C4A536803F00303E7
:101100004360536803F0F0038360536803F4E063C3
:10111000C36052684FF4E06303EAD20202610448FC
:10112000006800F0070008607047000000100240EF
:10113000002002400448054900684968044AC1F398
:101140000221515CC840704744000020001002405A
:10115000E44B00080448054900684968044AC1F3A3
:10116000C221515CC840704744000020001002407A
:10117000E44B00080E4A51680E4801F00C03042BA2
:1011800011D0082B0FD10C48C1F38343C903C05CB5
:101190000AD55168084AC1F34041921E515C054A84
:1011A0005043B0FBF1F070470449484370470000DA
:1011B0000010024000127A00EE4B000800093D00CA
:1011C0002DE9F84F040070D02078C04DC00749D0F9
:1011D0006868C0F38100012807D06868C0F3810007
:1011E000022809D16868C00306D52868800339D56C
:1011F00060680028E7D035E06068B0F5803F0BD02C
:1012000010B1B0F5A02F11D0286820F480302860EC
:10121000286820F4802002E0286840F480302860AC
:10122000606890B1FFF704FE06460AE0286840F4C3
:1012300080202860F0E700BFFFF7FAFD801B6428DC
:1012400073D828688003F7D50CE0FFF7F1FD064658
:1012500005E000BFFFF7ECFD801B6428F0D828688C
:101260008003F7D420789A4E80074FF001094FF0A1
:10127000000839D5686810F00C0F07D06868C0F313
:101280008100022809D16868C00306D42868800755
:1012900014D52069012808D110E02069B0B1C6F842
:1012A0000090FFF7C5FD074605E00AE1FFF7C0FD26
:1012B000C01B0228C4D828688007F7D52868616950
:1012C00020F0F80040EAC10028600DE0C6F8008078
:1012D000FFF7AEFD074604E0FFF7AAFDC01B02289A
:1012E00023D828688007F7D4207800072CD57948C0
:1012F000A169D9B1C0F80090FFF79AFD074604E054
:10130000FFF796FDC01B02280FD8686A8007F7D543
:1013100071484FF4FA510068B0FBF1F0009000BF43
:101320000098411E0091FAD20EE080E0C0F80080E3
:10133000FFF77EFD074604E0FFF77AFDC01B022899
:1013400075D8686A8007F7D42078400760D5E869C7
:101350000027C00008D4E86940F08050E861E869DF
:10136000012700F0805000905C480168C90513D443
:101370000168834641F480710160FFF759FD8246A0
:1013800006E000BFFFF754FDA0EB0A0064284ED82A
:10139000DBF80000C005F5D5E06801280AD008B1E7
:1013A000052813D0286A20F001002862286A20F05E
:1013B000040002E0286A40F001002862E06841F27F
:1013C000883B98B1FFF734FD82460BE0286A40F075
:1013D00004002862EEE700BFFFF72AFDA0EB0A0138
:1013E00059455AD8286A8007F6D50CE0FFF720FD4A
:1013F000824605E0FFF71CFDA0EB0A0159454CD8D9
:10140000286A8007F6D41FB1E86920F08050E861AF
:10141000E06988B36968C1F38101022944D00228D8
:10142000C6F8608004D0FFF703FD044638E034E0DE
:10143000FFF7FEFC074604E0FFF7FAFCC01B02289A
:101440002BD828688001F7D4206AB0F5803F05D1F9
:101450006868A16820F4003008436860D4E9080196
:101460000843696821F4741108436860C6F8609005
:10147000FFF7DEFC044606E025E000BFFFF7D8FCDE
:10148000001B022809D828688001F7D51BE000BF9F
:10149000FFF7CEFC001B022802D90320BDE8F88F1D
:1014A00028688001F4D40EE00128F7D06868226A29
:1014B00000F48031914204D1616A00F470108842D6
:1014C00001D00120EAE70020E8E700000010024018
:1014D000000042428004424244000020007000406C
:1014E0007047000038B50446006842688168C94307
:1014F0004B0606D5CB0704D1D3435B0601D4216C40
:1015000005E08B0708D4D3431B0605D4616C01B0FA
:101510002046BDE8304008478B0601D54B0646D42F
:10152000D3439B0643D44B060AD494F85130032B83
:101530003ED0636D43F004036365C3688368009322
:10154000890609D4616D41F00101616581680091EE
:10155000016821F040010160606D002827D02068FB
:10156000416821F0E0014160012084F851009007BA
:1015700022D02068416821F003014160104DE06CE9
:1015800040B14563E06CFFF7D9FA18B1606D40F0E7
:1015900040006065A06C002809D04563A06CFFF78F
:1015A000CDFA002803D0606D40F04000606538BD82
:1015B000C1688068009038BD2046FFF791FF38BDB4
:1015C000C921000870B5040009D0606A002540B147
:1015D00025616561A56294F8510040B10CE00120DD
:1015E00070BD6068B0F5827FF4D0E561F2E784F801
:1015F0005050204600F040F8022084F85100206846
:10160000016821F040010160A088218900F4827006
:1016100001F404410843A18901F400610843217CDD
:1016200001F002010843217D01F001010843218BF3
:1016300001F400710843217F01F03801084394F858
:10164000201001F080010843218D01F4005108436E
:1016500021680860A069042101EA104021684860FF
:101660002068C16921F40061C1616565012084F8C9
:101670005100002070BD000000B585B00021009130
:1016800001910291039100681349884222D11348C5
:10169000816941F480518161816901F48051049133
:1016A000816941F0040181618069694600F00400AC
:1016B0000490A0200090022001900320039008488D
:1016C000FFF7C0FA002205212320FFF74FFC23205B
:1016D000FFF73EFC05B000BD0030014000100240A5
:1016E000000801402DE9F84F984616468A46044600
:1016F000FFF79EFB814694F8510001281ED1BAF1F4
:10170000000F73D0002E71D094F85000012815D02E
:10171000012784F85070032084F851000025656586
:10172000C4F830A0A686E686A563A587E58765642C
:101730002564A068B0F5004F03D00CE00220BDE89E
:10174000F88F2068016821F040010160206801687D
:1017500041F48041016020680168490603D40168B2
:1017600041F040010160E068B0F5006F606803D0AF
:1017700048B3012E27D047E008B1012E1FD1206BBE
:1017800021680088C86006E020688168890709D55B
:10179000216B0988C160206B801C2063E08E401E95
:1017A000E0860CE0FFF744FBA0EB0901414503D3C1
:1017B000B8F1FF3F03D035E0B8F1000F32D0E08E32
:1017C0000028E1D123E0206B21680078087306E04F
:1017D0002068816889070AD5216B09780173206B1D
:1017E000401C2063E08E401EE0860DE02BE0FFF7FA
:1017F0001FFBA0EB0901414503D3B8F1FF3F03D024
:1018000010E0B8F1000F0DD0E08E0028E0D14A467C
:101810004146204600F028FD08B120206065A06800
:1018200030B109E084F8517084F85050032086E705
:101830002068C1688068009084F8517004F8505F97
:1018400060680028F3D0012079E7000070B50446F5
:1018500090F8510001281CD1C9B1C2B194F85000D0
:10186000012816D0012084F85000032084F851008C
:10187000002565652163A286E286A563656425640B
:10188000A587E587A068B0F5004F04D00DE00120E2
:1018900070BD022070BD2068016821F04001016028
:1018A0002068016841F480410160A16C1748C8625A
:1018B000A16C17488862A16C16480863A06C456348
:1018C000E38E2268216B0C32A06CFFF783F930B1F4
:1018D000606D40F01000606584F85050D7E72068D4
:1018E0000168490603D4016841F04001016084F8B1
:1018F00050502068416841F02001416020684168F3
:1019000041F002014160002070BD0000FB21000891
:1019100005220008D92100087047704770477047BA
:1019200010B5040003D094F83D0010B107E0012089
:1019300010BD002084F83C00204600F01EF8022074
:1019400084F83D00211D206800F04CFD012084F842
:10195000460084F83E0084F83F0084F8400084F894
:10196000410084F8420084F8430084F8440084F87D
:10197000450084F83D00002010BD704790F83D10F0
:10198000012901D001207047022180F83D10016833
:10199000CA6842F00102CA6000680B49884208D058
:1019A000B0F1804F05D00949884202D008498842E9
:1019B00004D1816801F00701062903D0016841F0D4
:1019C0000101016000207047002C0140000400402C
:1019D0000008004070472DE9F04104460068C668E1
:1019E00005694FF00007A90713D5B10711D5F91EF6
:1019F000016101202077206880698007204602D09D
:101A0000FFF7E8FF04E000F07EF8204600F07CF8E5
:101A10002777680716D5700714D521686FF0040082
:101A20000861022020772068806910F4407F2046FA
:101A300002D0FFF7CFFF04E000F065F8204600F089
:101A400063F82777280715D5300713D521686FF07D
:101A500008000861042020772068C06980072046BC
:101A600002D0FFF7B7FF04E000F04DF8204600F089
:101A70004BF82777E80616D5F00614D521686FF0E5
:101A800010000861082020772068C06910F4407FAA
:101A9000204602D0FFF79EFF04E000F034F8204615
:101AA00000F032F82777E80708D0F00706D0216861
:101AB0006FF001000861204600F028F8280608D5DC
:101AC000300606D521686FF0800008612046FFF7D8
:101AD00025FF680608D5700606D521686FF040001E
:101AE0000861204600F01CF8A8060AD5B00608D503
:101AF00021686FF0200008612046BDE8F041FFF743
:101B00000EBFBDE8F08170477047000000680349D0
:101B1000884201D1FFF792B97047000000080040E9
:101B20007047704770470000F8B5016804460868C0
:101B3000CA684B6910F00F0F4FF0000559D003F041
:101B4000010602F49077374365D0C10705D0D1056F
:101B500003D5616C41F001016164410705D5D907E6
:101B600003D0616C41F002016164810705D5D9079A
:101B700003D0616C41F004016164010707D502F0F4
:101B80002001314303D0616C41F008016164616C54
:101B900000293AD0800604D5900602D5204600F0F0
:101BA0008CFC20684069616CC0F38010090700D488
:101BB00060B3204600F05AFC20684069400621D5F9
:101BC0002068143050E8001F21F0400140E8001266
:101BD000002AF5D1E06BA8B16D494163E06BFEF7D7
:101BE000ADFF002811D0E06B416B01B0BDE8F040C3
:101BF000084783060FD593060DD52046BDE8F8406B
:101C000000F05BBC2046FFF78DFFF8BD2046FFF7D4
:101C100089FF6564F8BD266B2023012E7CD1C606A2
:101C20007AD5D60678D508684868009048694FF09C
:101C30000206400640D5E16B086840680004000CCD
:101C4000E8D0A28D8242E5D9E085886920282DD090
:101C500020680C3050E8001F21F4807140E8001229
:101C6000002AF5D12068143050E8001F21F001014E
:101C700040E80012002AF5D12068143050E8001F17
:101C800021F0400140E80012002AF5D184F84230EA
:101C9000256320680C3050E8001F21F0100140E857
:101CA0000012002AF5D1E06BFEF724FF6663A08DD9
:101CB000E18D401A81B22AE0A08DE18D401A81B2F7
:101CC000E08D0028A6D00029A4D022680C3252E86A
:101CD000000F20F4907042E80007002FF5D1206833
:101CE000143050E8002F22F0010240E80027002FB6
:101CF000F5D184F84230256320680C3050E8002F7D
:101D000022F0100240E80023002BF5D16663204644
:101D1000FFF707FFF8BDFFE705062BD5150629D508
:101D200094F841002128F5D1A068B0F5805F01D179
:101D30002069B0B1206A411C2162216800784860A6
:101D4000E08C401E0004000CE084E3D12068C168F0
:101D500021F08001C1602068C16841F04001C1608C
:101D6000D8E7206A0088C0F308004860206A801C19
:101D70002062E5E74006CDD55006CBD5CA6820469F
:101D800022F04002CA6084F8413000F0F5F8C1E763
:101D90005D24000870B5040004D094F841000025CB
:101DA00010B106E0012070BD84F84050204600F0DC
:101DB00023F8242084F841002068C16821F40051F0
:101DC000C160204600F00CFC2068016921F49041BC
:101DD00001612068416921F02A0141612068C168E0
:101DE00041F40051C1606564202084F8410084F80A
:101DF00042006563002070BD30B585B000240094BA
:101E00000194029403940068184988422CD1184820
:101E1000816941F480418161816901F480410491CB
:101E2000816941F0040181618069124D00F0040074
:101E300004904FF400700090022001900320039062
:101E400069462846FEF7FEFE2815CDE900046946DE
:101E500028460294FEF7F6FE002205212520FFF712
:101E600085F82520FFF774F805B030BD0038014033
:101E7000001002400008014090F84230202B01D0B1
:101E80000220704721B11AB10023036300F004BCA3
:101E90000120704710B500680B49884212D10B4CE5
:101EA00001200B4920706070A070208B82B209481D
:101EB000FFF7E2FF206B0023BDE810401A460449FB
:101EC00002F022BA10BD00000038014000000020DE
:101ED000D40000206C0100202DE9F843044690F85E
:101EE0004100984616460D46202802D00220BDE843
:101EF000F88385B17EB100206064212084F8410020
:101F0000FEF796FFA6848146E684A0682027B0F5F8
:101F1000805F02D003E00120E9E7206910B12E467E
:101F200000250EE000260CE08021204600F0CFFBCB
:101F3000A8B9C6B116F8010B21684860E08C401EB4
:101F4000E084E08C4B464FF00002CDF80080002882
:101F5000EAD14FF04001204600F0B9FB40B184F8CF
:101F600041700320C3E735F8020BC0F30800E3E734
:101F700084F841700020BAE77047FEE730B50023CF
:101F80000D881A465FF0010101FA02F4254205D0DE
:101F9000C2F10F0401FA04F41C43A3B2521C102A2C
:101FA000F2DB038030BD000030B500230D781A4607
:101FB0005FF0010101FA02F4254205D0C2F10704E5
:101FC00001FA04F41C43E3B2521C082AF2DB03704A
:101FD00030BD00001CB5012002F036F8214C6063D2
:101FE000012002F031F8A06300220520A16902F06F
:101FF00036F8206301F0E6FEE06304F11C011920CD
:10200000CDE900010023402217A1194802F07AFB14
:1020100004F120001824CDE900400023402215A13E
:10202000194802F06FFB0F4800232430CDE900402F
:10203000402216A1194802F065FB0A480023283007
:10204000CDE90040402216A1194802F05BFB05488B
:1020500000232C30CDE90040402216A1194802F09F
:1020600051FB1CBD000000207370697461736B002C
:10207000653600086C65645F636F6E74726F6C5FC9
:102080007461736B000000001D2900086C65645FBB
:102090006272656174685F7461736B0091270008F8
:1020A0006C65645F73747265616D5F7461736B00FE
:1020B000152B00086C65645F70756D615F746173EA
:1020C0006B000000012A000870B586B00024184893
:1020D0000094019402940394816941F0100181619C
:1020E000816901F010010491816941F02001816151
:1020F000816901F020010491816941F0040181614D
:102100008069012200F004000A4E5503049029461C
:102110003046FEF787FE01200095CDE9010402203C
:10212000039069463046FEF78DFD06B070BD000095
:102130000010024000100140104810B50E49016027
:102140004FF482714160002181600122C160C0E9C9
:102150000412520282610822C0E9072141628162B1
:102160000A21C162FFF72EFA002803D0BDE8104013
:10217000FEF7BEBC10BD000000300140140100207D
:102180000C4810B50A4901604FF4E131416000216B
:1021900081600C22C160C0E904128161C161FFF756
:1021A000F9FD002803D0BDE81040FEF7A1BC10BD2A
:1021B000003801406C010020FEE7FEE70148FFF710
:1021C00091B900001401002010B5406A0021C187B8
:1021D000C186FFF785F910BD10B5406A01684A68ED
:1021E00022F003024A60416D41F010014165012176
:1021F00080F85110FFF774F910BD10B5406AFFF771
:102200008CFB10BD38B50546446AFEF711FE024648
:1022100028680068800623D42068416821F02001E6
:1022200041602068416821F002014160642120463C
:1022300000F01AF818B1606D40F020006065A068E9
:10224000002118B92068C26880680090E1860120EA
:1022500084F85100606D18B12046FFF741F938BD90
:102260002046FFF759FB38BDF8B515460E460B461C
:10227000009204460122022100F010F840B93346D2
:10228000002280212046009500F008F8002804D0A4
:10229000606D40F0200060650320F8BD2DE9F84333
:1022A0001E46914688460446089DFEF7C1FD401B28
:1022B000351AFEF7BDFD074625480068C0F3CB3050
:1022C000684338E0701C37D0FEF7B2FDC01BA8424F
:1022D00003D215B1009860B32CE02068416821F06A
:1022E000E00141606068B0F5827F0BD1A068B0F575
:1022F000004F02D0B0F5806F04D12068016821F052
:1023000040010160A06AB0F5005F09D12068016852
:1023100021F4005101602068016841F4005101601E
:10232000012084F85100002084F850000320BDE80B
:10233000F8830025401E00902068816838EA01007B
:1023400004D000214945BDD10020F0E70121F9E783
:102350004400002038B5049C0094FEF770FB38BDA3
:1023600010B54FF0E020006902F024FA012803D0F4
:10237000BDE8104001F052BE10BD30B58FB028212D
:102380006846FEF72BF914210AA8FEF727F9012168
:102390000804CDE900100024029402250491CDE93F
:1023A0000750C00009906846FEF70AFF08B172B6F0
:1023B000FEE70F20CDE90A054FF48060CDE90C401F
:1023C00001210AA80E94FEF7FFFD002801D072B685
:1023D000FEE70FB030BD70470148FFF7FCBA0000C0
:1023E000B4010020F0B50268194B1A4C1A4D4FF099
:1023F0008047984205D0B84203D0A04201D0A842FD
:1024000003D122F070064A683243984205D0B842A0
:1024100003D0A04201D0A84203D122F44074CA687C
:1024200022434C6922F08002224302608A68C26221
:102430000A688262984201D1096901630121416100
:102440000169C90703D0016921F001010161F0BDF3
:10245000002C0140000400400008004010B5406A14
:102460000021C185C184FFF75DFB10BD01680C31FF
:1024700051E8002F22F4907241E80023002BF5D19F
:102480000168143151E8002F22F0010241E80023D5
:10249000002BF5D1016B012909D101680C3151E8FC
:1024A000002F22F0100241E80023002BF5D120215B
:1024B00080F8421000210163704708B590F842107F
:1024C000222901D0022008BD82684FF480539A422D
:1024D00001D1016921B1816A9A421BD04AB10AE057
:1024E0000268816A5268C2F308020A80816A891C04
:1024F00008E0026972B10268526802F07F020A7055
:10250000816A491C8162C18D491E0904090CC1857B
:1025100003D01BE002685268F1E70168CA6822F044
:102520002002CA600168CA6822F48072CA60016829
:102530004A6922F001024A61202180F842100021FC
:102540004163026B012A03D0FFF7A4FC002008BD01
:10255000016301680C3151E8002F22F0100241E8BC
:102560000023002BF5D101680A68D20602D50A685B
:1025700049680091818DFFF7D4FAE7E73EB504463C
:102580000B4606A20A216846FDF7C8FE82B24FF04C
:10259000FF3369462046FFF79FFC3EBD25640A00D5
:1025A00070B50C4606464FF0FF3506E02B4601227B
:1025B00021463046FFF790FC641C20780028F5D1B6
:1025C00070BD70B505460C460846FDF79BFF82B20C
:1025D00021462846BDE870404FF0FF33FFF77CBC32
:1025E00070B5044600680169E26821F44051114366
:1025F00001612169A0680843616908432168CA68CC
:1026000041F20C639A430243CA6020684169A2699F
:1026100021F44071114341611E492068884202D172
:10262000FEF798FD01E0FEF785FD00EBC00101EB30
:102630000012606864218000B2FBF0F3B3FBF1F399
:102640006FF018067343B2FBF0F5B2FBF0F605EB42
:102650008305322303EB0515B5FBF1F5B6FBF1F667
:1026600005F0F00505EB0615B2FBF0F6B2FBF0F055
:10267000B0FBF1F06FF01802504306EB800003EB63
:102680000010B0FBF1F0216800F00F0028448860D2
:1026900070BD00000038014081628285C285002142
:1026A0004164222180F84210016921B10168CA68A1
:1026B00042F48072CA6001684A6942F001024A61CC
:1026C0000068C16841F02001C160002070472DE919
:1026D000F843984617460D460446089E24E0701CB1
:1026E00022D0FEF7A5FBA0EB0800B0421AD8CEB16D
:1026F0002068C168490717D5802D15D0402D13D00B
:102700000168C94309070FD401680025406800909B
:102710002046FFF7ABFE0820606484F8405001209B
:10272000BDE8F8830320FBE72068006835EA000075
:1027300004D00020B842D2D00020F1E70120F9E710
:102740000148FFF7F1B900006C010020FEE700002E
:102750000A4601460148FFF779B80000140100203D
:102760000907090E002804DB00F1E02080F80014BE
:10277000704700F00F0000F1E02080F8141D704752
:1027800030380A2801D2012070470020704700002D
:10279000DFF86081584C86B04FF0000B4FF0FF39E6
:1027A00003254FF6FF7ACDF8009000230122022185
:1027B000E06B01F05BFB4F48243000F060FA2064CE
:1027C00001F0F8FA84F800B04CA14D48FFF7E8FE9C
:1027D0004CA14B48FFF7E4FE4948216CFFF7CEFEC1
:1027E00000F036FF206CB0B1B0FBF5F000EB40001C
:1027F000C000FDF73DFD47490190D1E90601CDE953
:10280000020101980490207848B100BF84F800B01C
:102810000198FDF75CFD642001F036F9C3E701F093
:10282000C1FA0A26002711E098F80A2098F8091042
:10283000B2FBF6F398F80B00B1FBF6F2B0FBF6F042
:102840000090F9B202A8FFF785FD7F1C206CB0FB59
:10285000F5F0B842E8D8206C4B46B0FBF5F000EB41
:1028600040010AEAC1022C480499FEF73BFF6420AC
:1028700001F00AF9207818B9761E16F0FF06D1D1BA
:1028800000F0DCFE20780028C0D101F08BFA012690
:10289000002711E098F80A2098F80910B2FBF6F327
:1028A00098F80B00B1FBF6F2B0FBF6F00090F9B22D
:1028B00002A8FFF74FFD7F1C206CB0FBF5F0B8427B
:1028C000E8D8206C4B46B0FBF5F000EB40010AEA7B
:1028D000C10211480499FEF705FF642001F0D4F805
:1028E000207818B9761CF6B20B2ED1D300F0A6FED4
:1028F00089E70000D400002000000020090000004B
:102900006C0100204C494748545F4E756D626572FA
:102910003A000000984B0008140100201FB52E4C0F
:102920004FF0FF3703260122009700231146E06B8A
:1029300001F09CFA294800F0A2F9206401F03AFA6B
:1029400027A12848FFF72CFE27A12648FFF728FEDD
:102950002448216CFFF712FE00F07AFE206CB8B319
:10296000B0FBF6F000EB4000C000FDF781FC22490F
:10297000804601AAD1E9030182E803010025DFF8BE
:102980005C900BE099F80B10009199F80A3099F8D7
:102990000920E9B201A8FFF7DDFC6D1C206CB0FB3B
:1029A000F6F0A842EED801F0FDF9206C4FF6FF7169
:1029B000B0FBF6F000EB400001EAC0023B460F48D6
:1029C0000399FEF78FFE00F039FE4046FDF77FFCCD
:1029D000642001F059F8A6E700000020F80000206C
:1029E000090000006C0100204C494748545F4E75B7
:1029F0006D6265723A000000984B000814010020D7
:102A00001FB53A4E4FF000084FF0FF390324CDF8C0
:102A10000090002301220821F06B01F027FA3448CE
:102A200000F02DF9306401F0C5F986F8018031A17C
:102A30003148FFF7B5FD31A12F48FFF7B1FD2E4812
:102A4000316CFFF79BFD00F003FE306CA0B1B0FBD2
:102A5000F4F000EB4000C000FDF70AFC2B49824671
:102A600001AAD1E90C0182E80304707840B186F82C
:102A700001805046FDF72BFC642001F005F8C6E705
:102A800000272DE0002508E00023E9B21A4601A83E
:102A9000CDF80080FFF75EFC6D1C306CB0FBF4F0ED
:102AA000A842F1D81248C17A0091837A427AF9B2E9
:102AB00001A8FFF74FFC306C4FF6FF71B0FBF4F04C
:102AC00000EB400001EAC0024B4611480399FEF7B3
:102AD00009FEC82000F0D8FF70780028C5D17F1CFF
:102AE000306CB0FBF4F0B842BFD9CBE70000002057
:102AF000F8000020090000006C0100204C49474804
:102B0000545F4E756D6265723A000000984B000884
:102B1000140100201FB50027464C4FF0FF39032554
:102B20004FF6FF7BCDF80090002301220421E06BDB
:102B300001F09CF9404800F0A2F8206401F03AF955
:102B4000A7703EA13E48FFF72BFD3EA13C48FFF792
:102B500027FD3B48216CFFF711FD00F079FD206C4B
:102B600098B1B0FBF5F000EB4000C000FDF780FB32
:102B70003849824601AAD1E9090182E80304A07814
:102B800038B1A7705046FDF7A2FB642000F07CFF2F
:102B9000C8E701F007F90026A04619E02648C17AE7
:102BA0000091837A427AF1B201A8FFF7D3FB701C3F
:102BB00000EB40010BEAC1024B4627480399FEF7A0
:102BC00091FDC82000F060FF98F8020030B9761C33
:102BD000D8F84000B0FBF5F0B042DFD800F02EFD91
:102BE00098F802000028CCD101F0DCF8D8F84000B9
:102BF000B0FBF5F619E00023F1B21A4601A80097E0
:102C0000FFF7A8FBD8F840004B46B0FBF5F000EB0F
:102C100040010BEAC10210480399FEF763FDC8208A
:102C200000F032FF98F8020008B9761EE3D500F0F4
:102C300005FDA4E700000020F800002009000000C6
:102C40006C0100204C494748545F4E756D626572B7
:102C50003A000000984B000814010020FEF7F6F837
:102C6000FFF78BFBFFF730FAFFF766FAFFF788FAFA
:102C700000F00CF8FFF7AEF900F01AF8FEE7014695
:102C80008089C98940BA49BA48437047EFF3058043
:102C900010B16FF0050070470448016811B14FF0A2
:102CA000FF3070470121016000207047A400002020
:102CB00010B5EFF3058010B16FF0050010BD0848A6
:102CC0000168012902D04FF0FF3010BD054A0021F4
:102CD00082F8141D0221016000F0E6FF002010BD03
:102CE000A40000200BE000E02DE9F041134C0F465A
:102CF0000546E6682068001D00F086FD681C07D1C7
:102D000037B12168BDE8F0410D48091D00F0D8BD7C
:102D100020683544B5424560216805D2A06BBDE806
:102D2000F041091D00F0B4BD606B091D00F0B0FD5D
:102D3000A06A854200D2A562BDE8F081540000205F
:102D4000EC0600202DE9F041054600F0C5FD2D4CB4
:102D5000A068401CA06020682B4F10B1606930B3A0
:102D60002BE02560A068012827D1002606EB86000D
:102D700007EB800000F07EFD761C382EF6D323484A
:102D800000F078FD2148143000F074FD1F48283011
:102D900000F070FD1D483C3000F06CFD1B485030C9
:102DA00000F068FD194860631430A06305E02068F6
:102DB000E96AC06A884200D82560606A401C606287
:102DC0006864E86A2169884200D9206100EB8000CC
:102DD00007EB8000291D00F073FD00F09DFD606988
:102DE00000280CD02068E96AC06A884207D20849E6
:102DF0004FF080500860BFF34F8FBFF36F8FBDE877
:102E0000F0810000540000203C0200209C060020BD
:102E100004ED00E038B500F05FFD104C2068C8B943
:102E20000F4800F027FD0E48143000F023FD0C4839
:102E3000E060143020610A4B0020F43B009003F165
:102E4000540210210A2001F02BF9206010B105A1D5
:102E500000F0E4FDBDE8384000F05EBD90000020C9
:102E6000F4070020546D72510000000030B4026C71
:102E70000B46002A0BD0C1681144C1608468A1428E
:102E800001D30168C16030BC1846FDF75ABB30BCA5
:102E900070472DE9F041856B174604460026026C09
:102EA00082B1C7B1E068FDF74CFBE168206C091AFC
:102EB000E1602268914202D2A168081AE060022F04
:102EC00016D017E02068A8B9A06801F0EBFC064610
:102ED0000020A0600EE06068FDF733FB216C6068A5
:102EE00008446060A168884204D32068606001E003
:102EF00005B16D1E6D1CA5633046BDE8F08110B5AF
:102F0000044690F8590058B101280CD002280FD07F
:102F1000502080F31188BFF34F8FBFF36F8FFEE710
:102F2000206B00F00DFD2046BDE8104000F008BD0C
:102F300010BD000010484FF44061420706D0C01D8C
:102F40000D4920F00700411AC1F540610B4A0023EA
:102F50000144C2E900030839183A21F00701116061
:102F60004B600B600B1AC0E9001393604FF00040F8
:102F70005360506170470000D40E0020C000002054
:102F8000144E154CA6F29C474FF08058DFF84C9039
:102F900012E000BF00F0A0FCF068C568281D00F03A
:102FA00033FCA068401EA0606068401E606000F0B6
:102FB000B3FC2846FFF7A3FF60680028EAD1386811
:102FC0000128F9D9C9F80080BFF34F8FBFF36F8F85
:102FD000F2E70000D80600205400002004ED00E0D5
:102FE000002807D00021816001600B460A46C160BD
:102FF00001F0CEB87047000070B51D46049C61B169
:10300000C4F80020C4E90F010121204601F07CF83A
:1030100084F850500020A06470BD2460F2E70000E6
:103020002DE9F05F8846DDE90B9415468346910053
:103030009A460A9EA522206BFDF7C8FA6FF003019D
:10304000206B01EB8501084420F00707780707D0C3
:10305000502080F31188BFF34F8FBFF36F8FFEE7CF
:103060000025B8F1000F0FD05FF00000221818F80B
:10307000001082F8341018F8001011B1401C10280C
:10308000F4D384F8435001E084F83450382E00D350
:103090003726E662C4E91365201D00F0F6FB04F153
:1030A000180000F0F2FB2461C6F138006462A061F0
:1030B000656584F8585052465946384600F0ACFAD7
:1030C0002060B9F1000F01D0C9F80040BDE8F09FC1
:1030D00030B5114900E011460A688242FBD34B68C3
:1030E0005C18844203D1406818444860084643682D
:1030F0001C18944209D1084C183C2468A24209D0FB
:1031000052681A4442600A6812680260814200D024
:10311000086030BD0460F9E7C000002070B50024ED
:1031200041600B4D0061914206D8D11A82699142EB
:1031300006D2011D286907E09A4203D2994201D3C1
:10314000012403E0011DE86800F0A2FB204670BDE9
:103150009000002010B5044600F0BEFBA06B28B123
:103160005FF0000400F0D8FB204610BD0124F9E711
:10317000F1B500260098846C5CB1A16BE06B8142D4
:103180000FD3502080F31188BFF34F8FBFF36F8FA1
:10319000FEE7502080F31188BFF34F8FBFF36F8F8E
:1031A000FEE7A16B81420CD294F94550002269469A
:1031B0002046FFF76EFE0646681C04D06D1C84F89E
:1031C00045503046F8BD606A0028FAD004F124006A
:1031D00001F0E4FB0028F4D00126F2E730B589B015
:1031E0003C4D6EE00498002806DADDE90601059AF8
:1031F00090470498002864DB069C606910B1201D8C
:1032000000F002FB03A800F0D7F8024604980A2851
:1032100057D2DFE800F00505052D334A05052D33AB
:1032200094F8280040F0010084F828000599A0696E
:10323000059B01442046FFF771FF68B3216A2046D1
:10324000884794F8280040073BD500200090059857
:10325000A169002342181946204601F069FCD8B93B
:10326000502080F31188BFF34F8FBFF36F8FFEE7BD
:1032700014F8280F20F00100207022E094F82800B4
:1032800040F0010084F828000598A06128B1811859
:1032900013462046FFF742FF13E0502080F31188C9
:1032A000BFF34F8FBFF36F8FFEE794F828008107BD
:1032B00003D4204600F044FB03E020F0010084F832
:1032C0002800002204A9286801F08AF8002889D182
:1032D00009B030BD900000202DE9FC410F460546A5
:1032E00000F026FD01A800F067F80446019818B127
:1032F00001F08CFBBDE8FC81254EAFB13069006860
:10330000D0B30027291B3A46306800F09BFB01F040
:103310007DFB0028EED11F494FF080500860BFF3BD
:103320004F8FBFF36F8FE5E7A542EBD801F06EFB3F
:10333000F0682746C068C468201D00F065FA94F85C
:103340002800410719D5A0692B4641193A46204665
:10335000FFF7E4FEA8B100200346014600902A468C
:10336000204601F0E5FB60B9502080F31188BFF3DF
:103370004F8FBFF36F8FFEE707E020F0010084F866
:103380002800216A20468847B4E70127BAE70000F1
:103390009000002004ED00E00648416B096829B167
:1033A000416BC968C9684968816270474FF0FF3155
:1033B000FAE700005400002070B5054601F008FA55
:1033C000064E0446B068844203D200F009F801209A
:1033D00000E0002028602046B46070BD900000200E
:1033E000F8B5194D20E0C068C4680668201D00F0DB
:1033F0000BFA216A2046884794F82800400713D525
:10340000A0693044B04206D924616060211DE8689B
:1034100000F03EFA08E000200346014600903246E4
:10342000204601F085FB38B1E86801680029DAD14F
:103430002969C5E90310F8BD502080F31188BFF356
:103440004F8FBFF36F8FFEE7900000200848406861
:10345000401C4FF0500080F3118804D0BFF34F8F11
:10346000BFF36F8FFEE7BFF34F8FBFF36F8FFEE7A2
:10347000C80000200346002012B1994302D07047D3
:103480000B42FCD001207047074CE068016841B155
:10349000C0680021D0F80000FFF71EFFFFF79EFE76
:1034A000F3E701210020F7E7900000202DE9F0412B
:1034B000044600F011FA94F9455004F124060FE097
:1034C000A06C18B12046FFF753FE04E0606A48B1D3
:1034D000304601F063FA08B100F004FB6D1E6DB2D6
:1034E000002DEDDC4FF0FF3684F8456000F014FA53
:1034F00000F0F2F994F9445004F1100709E0206952
:1035000048B1384601F04AFA08B100F0EBFA6D1EF6
:103510006DB2002DF3DC84F84460BDE8F04100F0AA
:10352000FBB900002DE9F0410546002700F000FC42
:10353000324E306808B9FFF7FDFC706905424ED184
:10354000C5B3083568070ED005F00700C0F10800C4
:103550000544680707D0502080F31188BFF34F8FD0
:10356000BFF36F8FFEE72DB37068854237D82348CD
:10357000183001460C6801E020460C466168A942FB
:1035800002D221680029F7D131688C4227D0076820
:103590002168016060680837411B10290FD9601944
:1035A000420708D0502080F31188BFF34F8FBFF33C
:1035B0006F8FFEE713E041606560FFF789FD61688A
:1035C0007068401A7060B268904200D2B060706952
:1035D00001430020C4E90001F068401CF06001F0E4
:1035E00015FA780707D0502080F31188BFF34F8F6A
:1035F000BFF36F8FFEE73846BDE8F081A8000020DA
:103600000449086818B10868026D521C0265086810
:10361000704700005400002010B5031F4FF0807465
:103620001C601B1F21F001011960191F024B0B6068
:10363000143940380A6010BD4D3400080348002397
:103640001A461946806B00F0A3BD00000000002060
:10365000034800231A461946406B00F099BD00004C
:10366000000000201FB500F0A5FB55A15648FEF74D
:1036700097FFFFF7EDFF554C5549208B82B252481A
:10368000FEF7FAFB524D032736354FF0FF39A5F10F
:10369000240A4F494A461231206B00F0A1FE4C48E3
:1036A00010211230FDF794F9A080010A297068708A
:1036B00000F078FB206C78B3B0FBF7F000EB400033
:1036C000C000FCF7D5FD4349804601AAD1E90001BD
:1036D00082E803010026B34608E00023F1B21A464F
:1036E00001A8CDF800B0FEF735FE761C206CB0FBCB
:1036F000F7F0B042F1D8206C4B46B0FBF7F000EB8E
:1037000040014FF6FF7000EAC10233480399FDF70C
:10371000E9FF4046FCF7DBFDFFF790FF2C49102244
:10372000123101F11200FCF70CFF9AF80000564626
:10373000482834D100F03EFB28A12348FEF730FF93
:103740002878317C884205D16878717C884201D123
:1037500025A100E026A11C48FEF722FF26A11A4859
:10376000FEF71EFF25A11848FEF71AFF307930B189
:1037700001280AD0022816D003280ED119E0012111
:10378000E06B00F02DFBA16804E00221E06B00F08B
:1037900027FBE1680C48FEF714FFFFF759FF642090
:1037A00000F072F975E70421E06B00F019FB216964
:1037B000F0E70821E06B00F013FB6169EAE7000025
:1037C0007370697461736B006C010020000000204D
:1037D000D4000020984B0008140100204352435F9E
:1037E000524553554C543A00545255450000000080
:1037F00046414C5345000000090000004D6F6465D0
:103800006C5F5365743A0000D0E9013201699A6037
:10381000D0E901235A604A68824201D182684A6035
:10382000002202610868401E0860086870470000B6
:10383000044908680A688069D26A0968C2F13802D6
:103840008A61704754000020034B036003F15C0061
:1038500008608020106070471C080020044B036043
:1038600003F15C0008604FF4807010607047000046
:10387000780A002000F108014FF0FF32C0E9011280
:10388000C160016100210160704700210161704742
:1038900030B50B685A1C02D000F1080202E0026940
:1038A00004E02246546825689D42FAD953684B606B
:1038B00099608A60516008610168491C016030BDEF
:1038C00042684A6093688B609368596091600861B0
:1038D0000168491C01607047502080F31188BFF3D4
:1038E0004F8FBFF36F8F0A494868401C486001281A
:1038F0000CD10848006810F0FF0F07D0502080F36B
:103900001188BFF34F8FBFF36F8FFEE77047000042
:10391000C800002004ED00E00849486828B1401EB6
:10392000486001D180F311887047502080F31188DE
:10393000BFF34F8FBFF36F8FFEE70000C80000207A
:1039400070B500282AD0164DA0F108046068696996
:10395000084207D1502080F31188BFF34F8FBFF387
:103960006F8FFEE722683AB1502080F31188BFF3D1
:103970004F8FBFF36F8FFEE78843606000F0D8F988
:1039800060686968084468602046FFF7A1FB286901
:10399000401C2861BDE8704001F038B870BD0000DF
:1039A000A80000204FF0E02000210161816105495D
:1039B0004FF47A720968B1FBF2F1491E41610721A7
:1039C000016170474400002010B5FCF72DFC11493F
:1039D00010280ED300F1E02090F8F0030A7890420E
:1039E00007D2502080F31188BFF34F8FBFF36F8F42
:1039F000FEE709480068896800F4E060884207D95A
:103A0000502080F31188BFF34F8FBFF36F8FFEE715
:103A100010BD0000C80000200CED00E010B5084B00
:103A2000002200BF53F832401CB1521C082AF9D3BF
:103A300010BD43F8321003EBC201486010BD000016
:103A4000FC01002070B515460E460446FFF744FF02
:103A500094F944100020491C01D184F8440094F9E1
:103A60004510491C01D184F84500FFF755FFA06BB4
:103A700028B92A46314604F1240000F051F82046C6
:103A8000BDE87040FFF712BD10B5020014D00F481A
:103A9000006B38B1502080F31188BFF34F8FBFF314
:103AA0006F8FFEE700F044F900211046FFF71CF984
:103AB00000F0ACFF002807D105494FF080500860A6
:103AC000BFF34F8FBFF36F8F10BD00005400002075
:103AD00004ED00E002490A6A0260C968416070476B
:103AE0005400002001490120C861704754000020A3
:103AF00010B50C4650B1094909681831FFF7C8FEE6
:103B00002046BDE810400121FFF7EEB8502080F3B9
:103B10001188BFF34F8FBFF36F8FFEE75400002073
:103B200070B514460D4668B10A4909681831FFF7A7
:103B3000C7FE0CB14FF0FF3521462846BDE8704066
:103B4000FFF7D2B8502080F31188BFF34F8FBFF337
:103B50006F8FFEE75400002010B51446030011D00B
:103B60001048026BB2B1026841F0004191610168F6
:103B700018461831FFF7A4FE2046BDE81040012189
:103B8000FFF7B2B8502080F31188BFF34F8FBFF317
:103B90006F8FFEE7502080F31188BFF34F8FBFF384
:103BA0006F8FFEE75400002070B504003ED0226DF8
:103BB000A2B1E06C884200D30146E06A884235D069
:103BC000012A33D11A4D2A6894420FD1502080F334
:103BD0001188BFF34F8FBFF36F8FFEE7502080F344
:103BE0001188BFF34F8FBFF36F8FFEE7E162A269C9
:103BF000002A02DBC1F13801A1610E4E00EB80000A
:103C0000616906EB8000814210D1201DFFF7FCFDA9
:103C1000E06A2969884200D9286100EB800006EB40
:103C20008000211DBDE87040FFF74ABE70BD000056
:103C3000540000203C02002070B5194D2A6BF2B1EF
:103C400041F000410160C4680CB3FFF7DDFD201DA9
:103C5000FFF7DAFDE06A2969884200D92861114935
:103C600000EB800001EB8000211DFFF729FEE06AD8
:103C70002968C96A884201D90120E86170BD5020D5
:103C800080F31188BFF34F8FBFF36F8FFEE7502093
:103C900080F31188BFF34F8FBFF36F8FFEE70000F3
:103CA000540000203C02002030B587B0002403946B
:103CB00005AA04A903A80494FFF7C6FDDDE90301E2
:103CC0000094CDE90110002315A11748059A00F0D2
:103CD00046FD164D0028E8621FD000F0F9FE0128CD
:103CE00009D0401C19D1502080F31188BFF34F8FA9
:103CF000BFF36F8FFEE7502080F31188BFF34F8F23
:103D0000BFF36F8F4FF0FF30A86201206861EC6055
:103D100007B0BDE8304000F02DB907B030BD00005D
:103D200049444C4500000000812F00085400002049
:103D30000248016B491C01637047000054000020D9
:103D4000164810B5016B11B10121C16110BD0021F0
:103D5000C1610169124A01E0B9B1491E01EB810359
:103D600052F82330002BF7D001EB810302EB8302E2
:103D700002F1080453685B685360A34201D15B6899
:103D80005360DA680260016110BD502080F3118831
:103D9000BFF34F8FBFF36F8FFEE70000540000208A
:103DA0003C02002002484FF0FF31806B00F0B4BBB2
:103DB0000000002002484FF0FF31406B00F0ACBB28
:103DC0000000002070B52020FFF7ACFB040005D0F8
:103DD0000025201D2560FFF74DFD2577204670BD8D
:103DE0002DE9F0410027884604000AD05FEA1860F8
:103DF0000FD0502080F31188BFF34F8FBFF36F8F28
:103E0000FEE7502080F31188BFF34F8FBFF36F8F11
:103E1000FEE7261D04F10C05FFF78AFF2168F06814
:103E200041EA0801216017E0D0E9001601F07F4265
:103E30005301236821F07F4102D40B4203D10AE0F1
:103E400031EA030307D1D20100D50F43216841F0C5
:103E50000071FFF7F1FE3046A842E5D12068B84373
:103E6000206000F0D3FD2068BDE8F0812DE9F04727
:103E70009A46DDF8209090460D4604004FF000076A
:103E800009D0280E0FD0502080F31188BFF34F8F38
:103E9000BFF36F8FFEE7502080F31188BFF34F8F81
:103EA000BFF36F8FFEE71DB100F084FC40B112E05C
:103EB000502080F31188BFF34F8FBFF36F8FFEE761
:103EC000B9F1000F07D0502080F31188BFF34F8F56
:103ED000BFF36F8FFEE7FFF72BFF26685246294698
:103EE0003046FFF7C7FA30B1B8F1000F1AD020689A
:103EF000A843206016E0B9F1000F13D0B8F1000F0D
:103F000001D04FF08077BAF1000F01D047F0806701
:103F100045EA07014A46201DFFF71EFE00F076FD28
:103F200018B10AE000F072FD1FE011494FF0805017
:103F30000860BFF34F8FBFF36F8FFFF779FC064622
:103F4000800110D4FFF7C8FC266852462946304647
:103F5000FFF790FA28B1B8F1000F02D02068A8430B
:103F60002060FFF7D9FC26F07F463046BDE8F08799
:103F700004ED00E01CB5264908780190FF20087088
:103F800008788DF800009DF800009DF8002000F0F2
:103F9000F000904207D0502080F31188BFF34F8F7C
:103FA000BFF36F8FFEE79DF800001A4C00F0500041
:103FB00020700720A06005E09DF8002052008DF8D9
:103FC0000020401E9DF800201206F5D4A0600328B2
:103FD00007D0502080F31188BFF34F8FBFF36F8F4E
:103FE000FEE74FF44070A060019808700A4801682D
:103FF00041F470010160016841F070410160FFF718
:10400000D1FC00206060FCF7D9F800201CBD000046
:1040100000E400E0C800002020ED00E010B55020D2
:1040200080F31188BFF34F8FBFF36F8F00F0D6FB83
:1040300018B104494FF080500860002080F31188C7
:1040400010BD000004ED00E010B502460021012083
:1040500000F005F80446FEF7C3FF204610BDF8B592
:1040600017460E46050013D005FB06F05430FFF747
:1040700059FA04000AD0002084F8460004F15402E2
:104080003B46314628460094FEF7B6FF2046F8BD71
:10409000502080F31188BFF34F8FBFF36F8FFEE77F
:1040A00038B5049D18B153B1CAB181B120E0502098
:1040B00080F31188BFF34F8FBFF36F8FFEE750205F
:1040C00080F31188BFF34F8FBFF36F8FFEE750204F
:1040D00080F31188BFF34F8FBFF36F8FFEE739B1C5
:1040E000502080F31188BFF34F8FBFF36F8FFEE72F
:1040F00054241C46012384F846302B460094FEF7D6
:104100007BFF204638BD000070B50D46040025D069
:10411000FFF7E2FBD4E90F20216802FB0011A16048
:104120000021A163216861600A46D4E90F01401EA5
:1041300000FB0121E16021464FF0FF3001F8440F00
:10414000487004F110008DB1FFF794FB04F12400D6
:10415000FFF790FBFFF7E0FB012070BD502080F3DC
:104160001188BFF34F8FBFF36F8FFEE721690029DE
:10417000F0D000F013FC0028ECD004494FF0805040
:104180000860BFF34F8FBFF36F8FE3E704ED00E0EC
:104190002DE9FF4782B01D468A464FF00008040013
:1041A00003D0BAF1000F08D011E0502080F311883D
:1041B000BFF34F8FBFF36F8FFEE7206C38B15020F5
:1041C00080F31188BFF34F8FBFF36F8FFEE7022D8F
:1041D0000AD1E06B012807D0502080F31188BFF38B
:1041E0004F8FBFF36F8FFEE700F0E4FA454F4FF0BB
:1041F00000094FF0805648B9049838B1502080F338
:104200001188BFF34F8FBFF36F8FFEE7FFF764FB9B
:10421000A06BE16B884207D3022D05D0049838B318
:10422000B8F1000F27D02BE0D4F838802A46514649
:104230002046FEF72EFEA16C41B1022D02D1B8F14D
:10424000000F0FD12046FEF793FF05E0616A19B118
:1042500004F1240000F0A2FB20B13E60BFF34F8FB9
:10426000BFF36F8FFFF758FB012006B0BDE8F08762
:10427000FFF752FB22E06846FFF72CFC4FF00108E5
:10428000FFF74AFBFFF754FDFFF726FB94F94400C4
:10429000401C01D184F8449094F94500401C01D1A0
:1042A00084F84590FFF738FB04A9684600F0F0F960
:1042B00030B12046FFF7FAF800F0A8FB0020D4E761
:1042C000FFF70AFBA06BE16B884213D1FFF724FBD9
:1042D00004F110000499FFF70BFC2046FFF7E6F805
:1042E00000F094FB002891D13E60BFF34F8FBFF3E5
:1042F0006F8F8BE7FFF710FB2046FFF7D7F800F032
:1043000085FB83E704ED00E02DE9F0471F461646E4
:104310008A46040003D0BAF1000F08D011E0502003
:1043200080F31188BFF34F8FBFF36F8FFEE7206CD0
:1043300038B1502080F31188BFF34F8FBFF36F8FD8
:10434000FEE7022F0AD1E06B012807D0502080F34E
:104350001188BFF34F8FBFF36F8FFEE7FFF734FB7A
:104360005021EFF3118081F31188BFF34F8FBFF31A
:104370006F8F8046A06BE16B884207D3022F05D078
:104380005FF0000088F31188BDE8F08794F945508C
:10439000D4F838903A4651462046FEF77AFD681C1C
:1043A00004D06D1C84F845500120EBE7A06C01257A
:1043B00040B1022F02D1B9F1000FF5D12046FEF72E
:1043C000D7FE06E0606A0028EED004F1240000F079
:1043D000E5FA0028E8D0002EE6D03560E4E70000DA
:1043E0002DE9F747002683B08A46040003D0BAF1CE
:1043F000000F08D011E0502080F31188BFF34F8FD9
:10440000BFF36F8FFEE7206C38B1502080F3118826
:10441000BFF34F8FBFF36F8FFEE700F0CBF9DFF8EC
:10442000F4804FF000094FF0805748B9059838B133
:10443000502080F31188BFF34F8FBFF36F8FFEE7DB
:10444000FFF74AFAA56BC5B151462046FEF70EFDAF
:104450006D1EA563206950B104F1100000F09EFAB2
:1044600028B1C8F80070BFF34F8FBFF36F8FFFF70D
:1044700053FA012006B0BDE8F087059808B11EB1D7
:1044800006E0FFF749FA27E06846FFF723FB01261D
:10449000FFF742FAFFF74CFCFFF71EFA94F94400CD
:1044A000401C01D184F8449094F94500401C01D18E
:1044B00084F84590FFF730FA05A9684600F0E8F85F
:1044C000002820460AD0FEF7F1FF00F09FFA2046B0
:1044D000FEF740FE0028B3D00020CBE7FEF73AFEFF
:1044E00090B104F124000599FFF702FB2046FEF786
:1044F000DDFF00F08BFA0028A2D1C8F80070BFF3EE
:104500004F8FBFF36F8F9BE72046FEF7CFFF00F082
:104510007DFA95E704ED00E02DE9F343002683B032
:104520000400354609D0206C78B1502080F3118802
:10453000BFF34F8FBFF36F8FFEE7502080F31188DA
:10454000BFF34F8FBFF36F8FFEE700F033F9DFF853
:104550003C814FF000094FF0805748B9049838B1BA
:10456000502080F31188BFF34F8FBFF36F8FFEE7AA
:10457000FFF7B2F9A06BC8B1401EA063206810B964
:10458000FFF73EF8A060206950B104F1100000F080
:1045900005FA28B1C8F80070BFF34F8FBFF36F8FD3
:1045A000FFF7BAF9012005B0BDE8F083049808B11F
:1045B00066B10FE03DB1502080F31188BFF34F8FFB
:1045C000BFF36F8FFEE7FFF7A7F95DE06846FFF7DF
:1045D00081FA0126FFF7A0F9FFF7AAFBFFF77CF9A4
:1045E00094F94400401C01D184F8449094F94500AA
:1045F000401C01D184F84590FFF78EF904A9684664
:1046000000F046F80028204612D0FEF74FFF00F0D9
:10461000FDF92046FEF79EFD0028A9D09DB3FFF7C7
:104620005BF9606A50B3206B0068C0F1380126E086
:10463000FEF790FDE0B1206838B9FFF74DF9A068AA
:1046400000F070F90546FFF767F904F124000499BA
:10465000FFF74EFA2046FEF729FF00F0D7F90028B1
:1046600086D1C8F80070BFF34F8FBFF36F8F7FE71D
:104670002046FEF71BFF00F0C9F979E70021A0688A
:10468000FFF792FA9FE7FFE700208CE704ED00E0D8
:104690002DE9F0410C46050011D0C4B1FFF71CF91B
:1046A000174BDA686E682068911B471C17D02F687B
:1046B0001B6A9F4219D0964217D8012410E050205F
:1046C00080F31188BFF34F8FBFF36F8FFEE7502049
:1046D00080F31188BFF34F8FBFF36F8FFEE7002485
:1046E000FFF71AF92046BDE8F081884205D9401A43
:1046F00020602846FFF7EEF9F1E700202060DCE7B4
:10470000540000202DE9FF5F8346DDE90E879946BE
:1047100016468A469000FEF705FF05001CD05C2077
:10472000FEF700FF040014D00020256384F8590030
:10473000CDE90240CDE900874B4632465146584606
:10474000FEF76EFC2046FEF7FDFA012004B0BDE83E
:10475000F09F2846FFF7F4F84FF0FF30F6E7F0B58A
:1047600085B0DDE90B640A9DA6B1DCB15C2700973A
:104770002663022684F85960002604AFCDE902467C
:10478000CDE90057FEF74CFC2046FEF7DBFA049813
:1047900005B0F0BD502080F31188BFF34F8FBFF3F9
:1047A0006F8FFEE7502080F31188BFF34F8FBFF368
:1047B0006F8FFEE70548416919B1006B18B1002001
:1047C000704701207047022070470000540000200D
:1047D0000148C06870470000540000202DE9F041F6
:1047E0002E4C0027206B28B1A069401CA0613846E0
:1047F000BDE8F081E668761CE66013D1606B006866
:1048000038B1502080F31188BFF34F8FBFF36F8F03
:10481000FEE7606BA16B6163A063206A401C2062AD
:10482000FEF7BAFDA06ADFF87880864209D3606B94
:104830000068A0B1606BC068C5686868864211D224
:10484000A0622068C06A00EB800158F821000128AE
:1048500000D90127E0690028C9D00127C7E74FF038
:10486000FF30EDE7281DFEF7CFFFA86A18B105F16C
:104870001800FEF7C9FFE86A2169884200D9206163
:1048800000EB800108EB8100291DFFF719F8E86AA9
:104890002168C96A8842CAD30127C8E754000020AA
:1048A0003C02002070B504004FF0000133D01B4DD6
:1048B0002868844207D0502080F31188BFF34F8FBF
:1048C000BFF36F8FFEE7206D38B1401E2065E36CAB
:1048D000E26A9A421FD040B11DE0502080F3118857
:1048E000BFF34F8FBFF36F8FFEE7201DFEF78CFFE6
:1048F000E06CE062C0F13800A061E06A296988429A
:1049000000D92861064900EB800001EB8000211DE1
:10491000FEF7D6FF0121084670BD000054000020BC
:104920003C02002070B504004FF000002BD0194D60
:10493000E16A2A68D26A914226D2A069002804DB83
:104940002868C06AC0F13800A061134E01EB8101F4
:10495000606906EB8101884211D1201DFEF754FFEA
:104960002868C06AE0622969884200D9286100EBA2
:10497000800006EB8000211DFEF7A2FF02E0286800
:10498000C06AE062012070BDE16C2A68D26A91427F
:10499000F8D370BD540000203C02002070B5C06800
:1049A000C46854B104F118000646FEF72DFF144DFB
:1049B000286B50B13146134815E0502080F3118820
:1049C000BFF34F8FBFF36F8FFEE7201DFEF71CFF75
:1049D000E06A2969884200D928610B4900EB800010
:1049E00001EB8000211DFEF76BFFE06A2968C96AB0
:1049F000884202D90120E86170BD002070BD00002E
:104A000054000020C40600203C0200202DE9F0479D
:104A10002C4D00242746286B38B1FEF75DFF286B2C
:104A2000401E2863286B40B146E0502080F3118877
:104A3000BFF34F8FBFF36F8FFEE7A968224E0120AF
:104A4000D1B3A6F5916980463068E0B1F068C468DA
:104A500004F11800FEF7D8FE201DFEF7D5FEE06A2F
:104A60002969884200D9286100EB800109EB8100A7
:104A7000211DFEF725FFE06A2968C96A8842E3D351
:104A8000C5F81C80E0E70CB1FEF786FCAC694CB1C0
:104A90004FEA0806FFF7A2FE00B1EE61641EF9D1ED
:104AA0000020A861E86938B1084901273807086083
:104AB000BFF34F8FBFF36F8FFEF72EFF3846BDE871
:104AC000F087000054000020C406002004ED00E040
:104AD00010B586B0FEF79EF9114C2068B8B10020E1
:104AE0000390049005AA04A903A8FEF7B7FEDDE928
:104AF000032102208DE8070000230AA10B48059A34
:104B0000FFF72DFE606010B106B0012010BD5020EF
:104B100080F31188BFF34F8FBFF36F8FFEE7000064
:104B200090000020546D7220537663008934000891
:104B30002DE9FF411E46134602000A9D4FF000007A
:104B400016D0144C2768002F0FD0CDE90013029225
:104B5000062917DAFFF72EFE02284FF000030FD0C8
:104B6000002269462068FFF713FB04B0BDE8F0811E
:104B7000502080F31188BFF34F8FBFF36F8FFEE794
:104B80002A46EEE70023324669463846FFF7BCFB6B
:104B9000EBE7000090000020512700080100000012
:104BA0000000000051270008010000000000000084
:104BB00051270008010000000000000051270008F4
:104BC0000100000000000000512700080100000063
:104BD00000000000000000000000000001020304CB
:104BE0000607080900000000010203040102020395
:104BF0000405060708090A0B0C0D0E0F101004001F
:104C00000008000000000000000200010000100089
:104C1000E8B791E9A9ACE781AF200000E6B581E6ED
:104C2000B0B4E781AF200000E591BCE590B8E78122
:104C3000AF200000E9A29CE889B2E68EA7E588B61D
:104C400000000000644C000800000020D4000000B8
:104C500028010008384D0008D4000020642000001E
:104C6000440100080000000000000000344C00086F
:104C7000284C00081C4C0008104C000812000000D2
:104C80000000000000000000000000000000000024
:104C90000000000000000000000000000000000014
:104CA000000000000000000000127A000100000077
:104CB00010000000000000000000000000000000E4
:104CC00000000000000000000000000000000000E4
:104CD00000000000000000000000000000000000D4
:104CE00000000000000000000000000000000000C4
:104CF00000000000000000000000000000000000B4
:104D000000000000000000000000000000000000A3
:104D10000000000000000000000000000000000093
:104D20000000000000000000000000000000000083
:084D3000AAAAAAAA00000000D3
:04000005080000ED02
:00000001FF
